:1000000063687374617475735F6D6178203D207BE4
:100010000D0A09313530302C09313530302C093199
:100020003530302C09313530302C09313530302C19
:1000300009313530302C09313530302C093135302B
:10004000302C09313530302C09313530302C093124
:100050003530302C09313530302C09313530302CE9
:1000600009313530302C09313530302C09313530FB
:10007000302C09313530302C09313530302C0931F4
:100080003530302C09313530302C09313530302CB9
:100090000D0A09313530302C09313530302C093119
:1000A0003530302C09313530302C09313530302C99
:1000B00009313530302C09313530302C09313530AB
:1000C000302C09313530302C09313530302C0931A4
:1000D0003530302C09313530302C09313530302C69
:1000E00009313530302C09313530302C093135307B
:1000F000302C09313530302C09313530302C093174
:100100003530302C09313530302C09313530302C38
:100110000D0A09313530302C09313530302C093198
:100120003530302C09313530302C09313530302C18
:1001300009313530302C09313530302C093135302A
:10014000302C09313530302C09313530302C093123
:100150003530302C09313530302C09313530302CE8
:1001600009313530302C09313530302C09313530FA
:10017000302C09313530302C09313530302C0931F3
:100180003530302C09313530302C09313530302CB8
:100190000D0A09313530302C09313530302C093118
:1001A0003530302C09313530302C09313530302C98
:1001B00009313530302C09313530302C09313530AA
:1001C000302C09313530302C09313530302C0931A3
:1001D0003530302C09313530302C09313530302C68
:1001E00009313530302C09313530302C093135307A
:1001F000302C09313530302C09313530302C093173
:100200003530302C09313530302C09313530302C37
:100210000D0A09313530302C09313530302C093197
:100220003530302C09313530302C09313530302C17
:1002300009313530302C09313530302C0931353029
:10024000302C09313530302C09313530302C093122
:100250003530302C09313530302C09313530302CE7
:1002600009313530302C09313530302C09313530F9
:10027000302C09313530302C09313530302C0931F2
:100280003530302C09313530302C09313530302CB7
:100290000D0A09313530302C09313530302C093117
:1002A0003530302C09313530302C09313530302C97
:1002B00009313530302C09313530302C09313530A9
:1002C000302C09313530302C09313530302C0931A2
:1002D0003530302C09313530302C09313530302C67
:1002E00009313530302C09313530302C0931353079
:1002F000302C09313530302C09313530302C093172
:100300003530302C09313530302C09313530302C36
:100310000D0A09313530302C09313530302C093196
:100320003530302C09313530302C09313530302C16
:1003300009313530302C09313530302C0931353028
:10034000302C09313530302C09313530302C093121
:100350003530302C09313530302C09313530302CE6
:1003600009313530302C09313530302C09313530F8
:10037000302C09313530302C09313530302C0931F1
:100380003530302C09313530302C09313530302CB6
:100390000D0A09313530302C09313530302C093116
:1003A0003530302C09313530302C09313530302C96
:1003B00009313530302C09313530302C09313530A8
:1003C000302C09313530302C09313530302C0931A1
:1003D0003530302C09313530302C09313530302C66
:1003E00009313530302C09313530302C0931353078
:1003F000302C09313530302C09313530302C093171
:100400003530302C09313530302C09313530302C35
:100410000D0A09313530302C09313530302C093195
:100420003530302C09313530302C09313530302C15
:1004300009313530302C09313530302C0931353027
:10044000302C09313530302C09313530302C093120
:100450003530302C09313530302C09313530302CE5
:1004600009313530302C09313530302C09313530F7
:10047000302C09313530302C09313530302C0931F0
:100480003530302C09313530302C09313530302CB5
:100490000D0A09313530302C09313530302C093115
:1004A0003530302C09313530302C09313530302C95
:1004B00009313530302C09313530302C09313530A7
:1004C000302C09313530302C09313530302C0931A0
:1004D0003530302C09313530302C09313530302C65
:1004E00009313530302C09313530302C0931353077
:1004F000302C09313530302C09313530302C093170
:100500003530302C09313530302C09313530302C34
:100510000D0A09313530302C09313530302C093194
:100520003530302C09313530302C09313530302C14
:1005300009313530302C09313530302C0931353026
:10054000302C09313530302C09313530302C09311F
:100550003530302C09313530302C09313530302CE4
:1005600009313530302C09313530302C09313530F6
:10057000302C09313530302C09313530302C0931EF
:100580003530302C09313530302C09313530302CB4
:100590000D0A09313530302C09313530302C093114
:1005A0003530302C09313530302C09313530302C94
:1005B00009313530302C09313530302C09313530A6
:1005C000302C09313530302C09313530302C09319F
:1005D0003530302C09313530302C09313530302C64
:1005E00009313530302C09313530302C0931353076
:1005F000302C09313530302C09313530302C09316F
:100600003530302C09313530302C09313530302C33
:100610000D0A09313530302C09313530302C093193
:100620003530302C09313530302C09313530302C13
:1006300009313530302C09313530302C0931353025
:10064000302C09313530302C09313530302C09311E
:100650003530302C09313530302C09313530302CE3
:1006600009313530302C09313530302C09313530F5
:10067000302C09313530302C09313530302C0931EE
:100680003530302C09313530302C09313530302CB3
:100690000D0A7D0D0A63687374617475735F6D690B
:1006A0006E203D207B0D0A093130302C093130306D
:1006B0002C093130302C093130302C093130302CBC
:1006C000093130302C093130302C093130302C09CF
:1006D0003130302C093130302C093130302C093197
:1006E00030302C093130302C093130302C09313088
:1006F000302C093130302C093130302C0931303078
:100700002C093130302C093130302C093130302C6B
:100710000D0A093130302C093130302C093130309C
:100720002C093130302C093130302C093130302C4B
:10073000093130302C093130302C093130302C095E
:100740003130302C093130302C093130302C093126
:1007500030302C093130302C093130302C09313017
:10076000302C093130302C093130302C0931303007
:100770002C093130302C093130302C0D0A09313040
:10078000302C093130302C093130302C09313030E7
:100790002C093130302C093130302C093130302CDB
:1007A000093130302C093130302C093130302C09EE
:1007B0003130302C093130302C093130302C0931B6
:1007C00030302C093130302C093130302C093130A7
:1007D000302C093130302C093130302C0931303097
:1007E0002C093130302C0D0A093130302C093130D0
:1007F000302C093130302C093130302C0931303077
:100800002C093130302C093130302C093130302C6A
:10081000093130302C093130302C093130302C097D
:100820003130302C093130302C093130302C093145
:1008300030302C093130302C093130302C09313036
:10084000302C093130302C093130302C0931303026
:100850002C0D0A093130302C093130302C0931305F
:10086000302C093130302C093130302C0931303006
:100870002C093130302C093130302C093130302CFA
:10088000093130302C093130302C093130302C090D
:100890003130302C093130302C093130302C0931D5
:1008A00030302C093130302C093130302C093130C6
:1008B000302C093130302C093130302C0D0A0931FF
:1008C00030302C093130302C093130302C093130A6
:1008D000302C093130302C093130302C0931303096
:1008E0002C093130302C093130302C093130302C8A
:1008F000093130302C093130302C093130302C099D
:100900003130302C093130302C093130302C093164
:1009100030302C093130302C093130302C09313055
:10092000302C093130302C0D0A093130302C09318E
:1009300030302C093130302C093130302C09313035
:10094000302C093130302C093130302C0931303025
:100950002C093130302C093130302C093130302C19
:10096000093130302C093130302C093130302C092C
:100970003130302C093130302C093130302C0931F4
:1009800030302C093130302C093130302C093130E5
:10099000302C0D0A093130302C093130302C09311E
:1009A00030302C093130302C093130302C093130C5
:1009B000302C093130302C093130302C09313030B5
:1009C0002C093130302C093130302C093130302CA9
:1009D000093130302C093130302C093130302C09BC
:1009E0003130302C093130302C093130302C093184
:1009F00030302C093130302C093130302C0D0A09BF
:100A00003130302C093130302C093130302C093163
:100A100030302C093130302C093130302C09313054
:100A2000302C093130302C093130302C0931303044
:100A30002C093130302C093130302C093130302C38
:100A4000093130302C093130302C093130302C094B
:100A50003130302C093130302C093130302C093113
:100A600030302C093130302C0D0A093130302C094E
:100A70003130302C093130302C093130302C0931F3
:100A800030302C093130302C093130302C093130E4
:100A9000302C093130302C093130302C09313030D4
:100AA0002C093130302C093130302C093130302CC8
:100AB000093130302C093130302C093130302C09DB
:100AC0003130302C093130302C093130302C0931A3
:100AD00030302C0D0A093130302C093130302C09DE
:100AE0003130302C093130302C093130302C093183
:100AF00030302C093130302C093130302C09313074
:100B0000302C093130302C093130302C0931303063
:100B10002C093130302C093130302C093130302C57
:100B2000093130302C093130302C093130302C096A
:100B30003130302C093130302C093130302C0D0A55
:100B4000093130302C093130302C093130302C094A
:100B50003130302C093130302C093130302C093112
:100B600030302C093130302C093130302C09313003
:100B7000302C093130302C093130302C09313030F3
:100B80002C093130302C093130302C093130302CE7
:100B9000093130302C093130302C093130302C09FA
:100BA0003130302C093130302C0D0A093130302CE5
:100BB000093130302C093130302C093130302C09DA
:100BC0003130302C093130302C093130302C0931A2
:100BD00030302C093130302C093130302C09313093
:100BE000302C093130302C093130302C0931303083
:100BF0002C093130302C093130302C093130302C77
:100C0000093130302C093130302C093130302C0989
:100C10003130302C0D0A7D0D0A7261775F6461748A
:100C2000615F6D6178203D207B0D0A0932353030DF
:100C30002C09323530302C09323530302C09323520
:100C400030302C09323530302C09323530302C0917
:100C5000323530302C09323530302C0932353030D5
:100C60002C09323530302C09323530302C093235F0
:100C700030302C09323530302C09323530302C09E7
:100C8000323530302C09323530302C0932353030A5
:100C90002C09323530302C09323530302C093235C0
:100CA00030302C09323530302C0D0A0932353030D5
:100CB0002C09323530302C09323530302C093235A0
:100CC00030302C09323530302C09323530302C0997
:100CD000323530302C09323530302C093235303055
:100CE0002C09323530302C09323530302C09323570
:100CF00030302C09323530302C09323530302C0967
:100D0000323530302C09323530302C093235303024
:100D10002C09323530302C09323530302C0932353F
:100D200030302C09323530302C0D0A093235303054
:100D30002C09323530302C09323530302C0932351F
:100D400030302C09323530302C09323530302C0916
:100D5000323530302C09323530302C0932353030D4
:100D60002C09323530302C09323530302C093235EF
:100D700030302C09323530302C09323530302C09E6
:100D8000323530302C09323530302C0932353030A4
:100D90002C09323530302C09323530302C093235BF
:100DA00030302C09323530302C0D0A0932353030D4
:100DB0002C09323530302C09323530302C0932359F
:100DC00030302C09323530302C09323530302C0996
:100DD000323530302C09323530302C093235303054
:100DE0002C09323530302C09323530302C0932356F
:100DF00030302C09323530302C09323530302C0966
:100E0000323530302C09323530302C093235303023
:100E10002C09323530302C09323530302C0932353E
:100E200030302C09323530302C0D0A093235303053
:100E30002C09323530302C09323530302C0932351E
:100E400030302C09323530302C09323530302C0915
:100E5000323530302C09323530302C0932353030D3
:100E60002C09323530302C09323530302C093235EE
:100E700030302C09323530302C09323530302C09E5
:100E8000323530302C09323530302C0932353030A3
:100E90002C09323530302C09323530302C093235BE
:100EA00030302C09323530302C0D0A0932353030D3
:100EB0002C09323530302C09323530302C0932359E
:100EC00030302C09323530302C09323530302C0995
:100ED000323530302C09323530302C093235303053
:100EE0002C09323530302C09323530302C0932356E
:100EF00030302C09323530302C09323530302C0965
:100F0000323530302C09323530302C093235303022
:100F10002C09323530302C09323530302C0932353D
:100F200030302C09323530302C0D0A093235303052
:100F30002C09323530302C09323530302C0932351D
:100F400030302C09323530302C09323530302C0914
:100F5000323530302C09323530302C0932353030D2
:100F60002C09323530302C09323530302C093235ED
:100F700030302C09323530302C09323530302C09E4
:100F8000323530302C09323530302C0932353030A2
:100F90002C09323530302C09323530302C093235BD
:100FA00030302C09323530302C0D0A0932353030D2
:100FB0002C09323530302C09323530302C0932359D
:100FC00030302C09323530302C09323530302C0994
:100FD000323530302C09323530302C093235303052
:100FE0002C09323530302C09323530302C0932356D
:100FF00030302C09323530302C09323530302C0964
:10100000323530302C09323530302C093235303021
:101010002C09323530302C09323530302C0932353C
:1010200030302C09323530302C0D0A093235303051
:101030002C09323530302C09323530302C0932351C
:1010400030302C09323530302C09323530302C0913
:10105000323530302C09323530302C0932353030D1
:101060002C09323530302C09323530302C093235EC
:1010700030302C09323530302C09323530302C09E3
:10108000323530302C09323530302C0932353030A1
:101090002C09323530302C09323530302C093235BC
:1010A00030302C09323530302C0D0A0932353030D1
:1010B0002C09323530302C09323530302C0932359C
:1010C00030302C09323530302C09323530302C0993
:1010D000323530302C09323530302C093235303051
:1010E0002C09323530302C09323530302C0932356C
:1010F00030302C09323530302C09323530302C0963
:10110000323530302C09323530302C093235303020
:101110002C09323530302C09323530302C0932353B
:1011200030302C09323530302C0D0A093235303050
:101130002C09323530302C09323530302C0932351B
:1011400030302C09323530302C09323530302C0912
:10115000323530302C09323530302C0932353030D0
:101160002C09323530302C09323530302C093235EB
:1011700030302C09323530302C09323530302C09E2
:10118000323530302C09323530302C0932353030A0
:101190002C09323530302C09323530302C093235BB
:1011A00030302C09323530302C0D0A0932353030D0
:1011B0002C09323530302C09323530302C0932359B
:1011C00030302C09323530302C09323530302C0992
:1011D000323530302C09323530302C093235303050
:1011E0002C09323530302C09323530302C0932356B
:1011F00030302C09323530302C09323530302C0962
:10120000323530302C09323530302C09323530301F
:101210002C09323530302C09323530302C0932353A
:1012200030302C09323530302C0D0A09323530304F
:101230002C09323530302C09323530302C0932351A
:1012400030302C09323530302C09323530302C0911
:10125000323530302C09323530302C0932353030CF
:101260002C09323530302C09323530302C093235EA
:1012700030302C09323530302C09323530302C09E1
:10128000323530302C09323530302C09323530309F
:101290002C09323530302C09323530302C093235BA
:1012A00030302C09323530302C0D0A7D0D0A726138
:1012B000775F646174615F6D696E203D207B0D0A0C
:1012C000093130302C093130302C093130302C09C3
:1012D0003130302C093130302C093130302C09318B
:1012E00030302C093130302C093130302C0931307C
:1012F000302C093130302C093130302C093130306C
:101300002C093130302C093130302C093130302C5F
:10131000093130302C093130302C093130302C0972
:101320003130302C093130302C0D0A093130302C5D
:10133000093130302C093130302C093130302C0952
:101340003130302C093130302C093130302C09311A
:1013500030302C093130302C093130302C0931300B
:10136000302C093130302C093130302C09313030FB
:101370002C093130302C093130302C093130302CEF
:10138000093130302C093130302C093130302C0902
:101390003130302C0D0A093130302C093130302CED
:1013A000093130302C093130302C093130302C09E2
:1013B0003130302C093130302C093130302C0931AA
:1013C00030302C093130302C093130302C0931309B
:1013D000302C093130302C093130302C093130308B
:1013E0002C093130302C093130302C093130302C7F
:1013F000093130302C093130302C093130302C0D8E
:101400000A093130302C093130302C093130302C80
:10141000093130302C093130302C093130302C0971
:101420003130302C093130302C093130302C093139
:1014300030302C093130302C093130302C0931302A
:10144000302C093130302C093130302C093130301A
:101450002C093130302C093130302C093130302C0E
:10146000093130302C093130302C0D0A093130303F
:101470002C093130302C093130302C093130302CEE
:10148000093130302C093130302C093130302C0901
:101490003130302C093130302C093130302C0931C9
:1014A00030302C093130302C093130302C093130BA
:1014B000302C093130302C093130302C09313030AA
:1014C0002C093130302C093130302C093130302C9E
:1014D000093130302C0D0A093130302C09313030CF
:1014E0002C093130302C093130302C093130302C7E
:1014F000093130302C093130302C093130302C0991
:101500003130302C093130302C093130302C093158
:1015100030302C093130302C093130302C09313049
:10152000302C093130302C093130302C0931303039
:101530002C093130302C093130302C093130302C2D
:101540000D0A093130302C093130302C093130305E
:101550002C093130302C093130302C093130302C0D
:10156000093130302C093130302C093130302C0920
:101570003130302C093130302C093130302C0931E8
:1015800030302C093130302C093130302C093130D9
:10159000302C093130302C093130302C09313030C9
:1015A0002C093130302C093130302C0D0A09313002
:1015B000302C093130302C093130302C09313030A9
:1015C0002C093130302C093130302C093130302C9D
:1015D000093130302C093130302C093130302C09B0
:1015E0003130302C093130302C093130302C093178
:1015F00030302C093130302C093130302C09313069
:10160000302C093130302C093130302C0931303058
:101610002C093130302C0D0A093130302C09313091
:10162000302C093130302C093130302C0931303038
:101630002C093130302C093130302C093130302C2C
:10164000093130302C093130302C093130302C093F
:101650003130302C093130302C093130302C093107
:1016600030302C093130302C093130302C093130F8
:10167000302C093130302C093130302C09313030E8
:101680002C0D0A093130302C093130302C09313021
:10169000302C093130302C093130302C09313030C8
:1016A0002C093130302C093130302C093130302CBC
:1016B000093130302C093130302C093130302C09CF
:1016C0003130302C093130302C093130302C093197
:1016D00030302C093130302C093130302C09313088
:1016E000302C093130302C093130302C0D0A0931C1
:1016F00030302C093130302C093130302C09313068
:10170000302C093130302C093130302C0931303057
:101710002C093130302C093130302C093130302C4B
:10172000093130302C093130302C093130302C095E
:101730003130302C093130302C093130302C093126
:1017400030302C093130302C093130302C09313017
:10175000302C093130302C0D0A093130302C093150
:1017600030302C093130302C093130302C093130F7
:10177000302C093130302C093130302C09313030E7
:101780002C093130302C093130302C093130302CDB
:10179000093130302C093130302C093130302C09EE
:1017A0003130302C093130302C093130302C0931B6
:1017B00030302C093130302C093130302C093130A7
:1017C000302C0D0A093130302C093130302C0931E0
:1017D00030302C093130302C093130302C09313087
:1017E000302C093130302C093130302C0931303077
:1017F0002C093130302C093130302C093130302C6B
:10180000093130302C093130302C093130302C097D
:101810003130302C093130302C093130302C093145
:1018200030302C093130302C093130302C0D0A7D0C
:101830000D0A0D0A6A69747465725F75707065725D
:101840005F6C696D6974203D2031300D0A6A6974DE
:101850007465725F6C6F775F6C696D6974203D2091
:051860002D31300D0ADE
:00000001FF
