:10000000313431352C323335392C313433392C32CB
:100010003339382C313433372C323339352C3134B1
:1000200033302C323338342C313432392C323338AB
:10003000312C313432302C323336362C31343233A9
:100040002C323337312C313432382C323338302C97
:10005000313432332C323337312C313430312C328D
:100060003333352C313731312C323835312C31376F
:1000700030302C323833332C313638382C3238315A
:10008000332C313636372C323737382C313635373A
:100090002C323736312C313637302C323738332C3E
:1000A000313633372C323732382C313631392C3225
:1000B0003639392C313538382C323634362C2D330C
:1000C0003030302C31303030302C0D0A313433396F
:1000D0002C323339392C313436362C323434342CFA
:1000E000313436372C323434352C313436302C32EE
:1000F0003433332C313435392C323433312C3134E0
:1001000035302C323431362C313435302C323431D8
:10011000362C313435312C323431392C31343437BA
:100120002C323431312C313433302C323338332CBF
:10013000313532382C323534362C313533372C3298
:100140003536312C313533372C323536312C31358B
:1001500032352C323534312C313532302C32353386
:10016000342C313531382C323533302C313531386F
:100170002C323533302C313531322C323532302C73
:10018000313438352C323437352C2D333030302C57
:1001900031303030302C0D0A313434342C3234309C
:1001A000362C313437302C323435302C313436392A
:1001B0002C323434392C313436332C323433382C1D
:1001C000313436312C323433352C313434382C320E
:1001D0003431342C313434372C323431312C313405
:1001E00034362C323431302C313433392C323339EB
:1001F000392C313432312C323336392C31343935D3
:100200002C323439312C313530382C323531342CD4
:10021000313530372C323531312C313439352C32BF
:100220003439312C313439382C323439362C31349C
:1002300038372C323437382C313438372C32343785
:10024000392C313438342C323437332C3134383083
:100250002C323436362C333138332C353330352C80
:100260000D0A313434382C323431342C31343735B2
:100270002C323435392C313437352C323435392C55
:10028000313436392C323434392C313436372C323F
:100290003434352C313435362C323432362C31343A
:1002A00035342C323432342C313435332C32343230
:1002B000312C313434372C323431312C3134333029
:1002C0002C323338342C313437352C323435392C08
:1002D000313439332C323438382C313439312C32F2
:1002E0003438352C313438312C323436382C3134E2
:1002F00038302C323436362C313437322C323435D7
:10030000342C313437342C323435362C31343730C8
:100310002C323435302C313434332C323430352CCB
:100320002D333030302C31303030302C0D0A313418
:1003300035342C323432342C313438312C3234369A
:10034000382C313438312C323436382C313437347F
:100350002C323435362C313437322C323435332C80
:10036000313436312C323433352C313435392C326A
:100370003433312C313435372C323432392C31345A
:1003800035312C323431382C313433352C32333949
:10039000312C313530352C323530382C3134393040
:1003A0002C323438332C313530312C323530312C3D
:1003B000313530302C323530302C313438392C3224
:1003C0003438312C313435372C323432382C313406
:1003D00035372C323432382C313435342C323432F7
:1003E000332C313432372C323337392C2D333030F3
:1003F000302C31303030302C0D0A313436342C3240
:100400003434302C313438382C323438302C3134C8
:1004100038372C323437382C313437392C323436A3
:10042000352C313437382C323436332C313436379E
:100430002C323434352C313436352C323434312CA2
:10044000313436342C323434302C313435372C328C
:100450003432392C313434322C323430332C313480
:1004600034382C323431332C313438382C3234385F
:10047000302C313530302C323530302C3135303570
:100480002C323530382C313437382C323436342C49
:10049000313434332C323430352C313434332C3243
:1004A0003430352C313433392C323339392C313422
:1004B00031332C323335352C2D333030302C313034
:1004C0003030302C0D0A313530322C323530342C6E
:1004D000313530362C323531302C313439392C32FB
:1004E0003439392C313439302C323438332C3134DE
:1004F00038372C323437392C313437362C323436C5
:10050000302C313437332C323435352C31343732CA
:100510002C323435342C313436372C323434352CBB
:10052000313435332C323432312C313432342C32B4
:100530003337332C313435302C323431362C31349E
:1005400035302C323431362C313435302C32343194
:10055000362C313530312C323530312C3134333387
:100560002C323338392C313433302C323338342C6C
:10057000313432372C323337382C313430302C325E
:100580003333332C2D333030302C31303030302C6D
:100590000D0A313439322C323438362C3135313180
:1005A0002C323531382C313530372C323531312C35
:1005B000313439392C323439392C313439382C3200
:1005C0003439362C313438392C323438312C3134FA
:1005D00038372C323437392C313438372C323437E1
:1005E000382C313438312C323436392C31343639D8
:1005F0002C323434392C313431352C323335382CDB
:10060000313434322C323430332C313434302C32D7
:100610003430302C313432392C323338312C3134BF
:1006200034362C323431302C313437322C323435AC
:10063000342C313433312C323338352C3134313998
:100640002C323336352C313339312C323331382C8E
:100650002D333030302C31303030302C0D0A3134E5
:1006600039362C323439332C313531382C3235335C
:10067000302C313531352C323532352C313530385E
:100680002C323531342C313530382C323531342C54
:10069000313530312C323530312C313530322C324D
:1006A0003530332C313530322C323530342C313436
:1006B00039392C323439392C313438372C323437FB
:1006C000382C313430382C323334362C3134333604
:1006D0002C323339342C313433342C323339302CFE
:1006E000313432312C323336392C313432342C32ED
:1006F0003337342C313436342C323434302C3134DA
:1007000035322C323432302C313435342C323432D0
:10071000342C313338322C323330332C2D333030CB
:10072000302C31303030302C0D0A313530372C320E
:100730003531312C313533302C323535302C3135A3
:1007400032362C323534342C313532302C3235338C
:10075000342C313532302C323533342C3135313480
:100760002C323532342C313531382C323533302C73
:10077000313531382C323533302C313531352C325E
:100780003532352C313530342C323530362C31334E
:1007900039372C323332392C313432362C3233372C
:1007A000362C313432332C323337312C313430382B
:1007B0002C323334362C313431342C323335362C20
:1007C000313435342C323432332C313430362C320F
:1007D0003334342C313431342C323335362C3133FC
:1007E00038392C323331352C333135362C353236DD
:1007F000302C0D0A313535332C323538382C313523
:1008000038362C323634342C313539302C323635BA
:10081000302C313539302C323635302C31353932B7
:100820002C323635342C313538392C323634392C9B
:10083000313539322C323635342C313539372C328A
:100840003636312C313539392C323636352C313675
:1008500030322C323637302C313337352C32323976
:10086000312C313430392C323334392C3134303668
:100870002C323334342C313339312C323331392C5E
:10088000313339302C323331362C313430382C324C
:100890003334362C313431382C323336342C313336
:1008A00038362C323331302C313334382C32323428
:1008B000362C2D333030302C31303030302C0D0A86
:1008C000313534382C323538302C313534352C3202
:1008D0003537352C313534312C323536392C3135EC
:1008E00033352C323535392C313533372C323536DA
:1008F000312C313533332C323535352C31353336D7
:100900002C323536302C313533382C323536342CC8
:10091000313533392C323536352C313533322C32B2
:100920003535332C313430352C323334312C3134AD
:1009300033352C323339312C313433332C32333894
:10094000382C313431382C323336332C3134313881
:100950002C323336332C313433362C323339332C7A
:10096000313438302C323436362C313432352C3266
:100970003337352C313337362C323239332C2D3353
:0C0980003030302C31303030302C0D0A7B
:00000001FF
